{
  "_format": "hh-sol-artifact-1",
  "contractName": "token",
  "sourceName": "contracts/tokens.sol",
  "abi": [
    {
      "inputs": [],
      "stateMutability": "nonpayable",
      "type": "constructor"
    },
    {
      "inputs": [],
      "name": "Token",
      "outputs": [
        {
          "internalType": "string",
          "name": "",
          "type": "string"
        }
      ],
      "stateMutability": "view",
      "type": "function"
    },
    {
      "inputs": [
        {
          "internalType": "address",
          "name": "account",
          "type": "address"
        }
      ],
      "name": "balview",
      "outputs": [
        {
          "internalType": "uint256",
          "name": "",
          "type": "uint256"
        }
      ],
      "stateMutability": "view",
      "type": "function"
    },
    {
      "inputs": [],
      "name": "name",
      "outputs": [
        {
          "internalType": "string",
          "name": "",
          "type": "string"
        }
      ],
      "stateMutability": "view",
      "type": "function"
    },
    {
      "inputs": [],
      "name": "owner",
      "outputs": [
        {
          "internalType": "address",
          "name": "",
          "type": "address"
        }
      ],
      "stateMutability": "view",
      "type": "function"
    },
    {
      "inputs": [],
      "name": "totalsupply",
      "outputs": [
        {
          "internalType": "uint256",
          "name": "",
          "type": "uint256"
        }
      ],
      "stateMutability": "view",
      "type": "function"
    },
    {
      "inputs": [
        {
          "internalType": "uint256",
          "name": "amount",
          "type": "uint256"
        },
        {
          "internalType": "address",
          "name": "to",
          "type": "address"
        }
      ],
      "name": "transfer",
      "outputs": [],
      "stateMutability": "nonpayable",
      "type": "function"
    }
  ],
  "bytecode": "0x60806040526040518060400160405280600581526020017f5061727468000000000000000000000000000000000000000000000000000000815250600090816200004a9190620003ac565b506040518060400160405280600181526020017f500000000000000000000000000000000000000000000000000000000000000081525060019081620000919190620003ac565b506064600255348015620000a457600080fd5b50600254600460003373ffffffffffffffffffffffffffffffffffffffff1673ffffffffffffffffffffffffffffffffffffffff1681526020019081526020016000208190555033600360006101000a81548173ffffffffffffffffffffffffffffffffffffffff021916908373ffffffffffffffffffffffffffffffffffffffff16021790555062000493565b600081519050919050565b7f4e487b7100000000000000000000000000000000000000000000000000000000600052604160045260246000fd5b7f4e487b7100000000000000000000000000000000000000000000000000000000600052602260045260246000fd5b60006002820490506001821680620001b457607f821691505b602082108103620001ca57620001c96200016c565b5b50919050565b60008190508160005260206000209050919050565b60006020601f8301049050919050565b600082821b905092915050565b600060088302620002347fffffffffffffffffffffffffffffffffffffffffffffffffffffffffffffffff82620001f5565b620002408683620001f5565b95508019841693508086168417925050509392505050565b6000819050919050565b6000819050919050565b60006200028d62000287620002818462000258565b62000262565b62000258565b9050919050565b6000819050919050565b620002a9836200026c565b620002c1620002b88262000294565b84845462000202565b825550505050565b600090565b620002d8620002c9565b620002e58184846200029e565b505050565b5b818110156200030d5762000301600082620002ce565b600181019050620002eb565b5050565b601f8211156200035c576200032681620001d0565b6200033184620001e5565b8101602085101562000341578190505b620003596200035085620001e5565b830182620002ea565b50505b505050565b600082821c905092915050565b6000620003816000198460080262000361565b1980831691505092915050565b60006200039c83836200036e565b9150826002028217905092915050565b620003b78262000132565b67ffffffffffffffff811115620003d357620003d26200013d565b5b620003df82546200019b565b620003ec82828562000311565b600060209050601f8311600181146200042457600084156200040f578287015190505b6200041b85826200038e565b8655506200048b565b601f1984166200043486620001d0565b60005b828110156200045e5784890151825560018201915060208501945060208101905062000437565b868310156200047e57848901516200047a601f8916826200036e565b8355505b6001600288020188555050505b505050505050565b61079380620004a36000396000f3fe608060405234801561001057600080fd5b50600436106100625760003560e01c806306fdde03146100675780634dfef1451461008557806372dd529b146100b55780638da5cb5b146100d3578063b7760c8f146100f1578063c24126761461010d575b600080fd5b61006f61012b565b60405161007c919061047e565b60405180910390f35b61009f600480360381019061009a9190610503565b6101b9565b6040516100ac9190610549565b60405180910390f35b6100bd610202565b6040516100ca9190610549565b60405180910390f35b6100db610208565b6040516100e89190610573565b60405180910390f35b61010b600480360381019061010691906105ba565b61022e565b005b610115610360565b604051610122919061047e565b60405180910390f35b6000805461013890610629565b80601f016020809104026020016040519081016040528092919081815260200182805461016490610629565b80156101b15780601f10610186576101008083540402835291602001916101b1565b820191906000526020600020905b81548152906001019060200180831161019457829003601f168201915b505050505081565b6000600460008373ffffffffffffffffffffffffffffffffffffffff1673ffffffffffffffffffffffffffffffffffffffff168152602001908152602001600020549050919050565b60025481565b600360009054906101000a900473ffffffffffffffffffffffffffffffffffffffff1681565b81600460003373ffffffffffffffffffffffffffffffffffffffff1673ffffffffffffffffffffffffffffffffffffffff1681526020019081526020016000205410156102b0576040517f08c379a00000000000000000000000000000000000000000000000000000000081526004016102a7906106a6565b60405180910390fd5b81600460003373ffffffffffffffffffffffffffffffffffffffff1673ffffffffffffffffffffffffffffffffffffffff16815260200190815260200160002060008282546102ff91906106f5565b9250508190555081600460008373ffffffffffffffffffffffffffffffffffffffff1673ffffffffffffffffffffffffffffffffffffffff16815260200190815260200160002060008282546103559190610729565b925050819055505050565b6001805461036d90610629565b80601f016020809104026020016040519081016040528092919081815260200182805461039990610629565b80156103e65780601f106103bb576101008083540402835291602001916103e6565b820191906000526020600020905b8154815290600101906020018083116103c957829003601f168201915b505050505081565b600081519050919050565b600082825260208201905092915050565b60005b8381101561042857808201518184015260208101905061040d565b60008484015250505050565b6000601f19601f8301169050919050565b6000610450826103ee565b61045a81856103f9565b935061046a81856020860161040a565b61047381610434565b840191505092915050565b600060208201905081810360008301526104988184610445565b905092915050565b600080fd5b600073ffffffffffffffffffffffffffffffffffffffff82169050919050565b60006104d0826104a5565b9050919050565b6104e0816104c5565b81146104eb57600080fd5b50565b6000813590506104fd816104d7565b92915050565b600060208284031215610519576105186104a0565b5b6000610527848285016104ee565b91505092915050565b6000819050919050565b61054381610530565b82525050565b600060208201905061055e600083018461053a565b92915050565b61056d816104c5565b82525050565b60006020820190506105886000830184610564565b92915050565b61059781610530565b81146105a257600080fd5b50565b6000813590506105b48161058e565b92915050565b600080604083850312156105d1576105d06104a0565b5b60006105df858286016105a5565b92505060206105f0858286016104ee565b9150509250929050565b7f4e487b7100000000000000000000000000000000000000000000000000000000600052602260045260246000fd5b6000600282049050600182168061064157607f821691505b602082108103610654576106536105fa565b5b50919050565b7f6e6f7420656e6f75676820616d6f756e74000000000000000000000000000000600082015250565b60006106906011836103f9565b915061069b8261065a565b602082019050919050565b600060208201905081810360008301526106bf81610683565b9050919050565b7f4e487b7100000000000000000000000000000000000000000000000000000000600052601160045260246000fd5b600061070082610530565b915061070b83610530565b9250828203905081811115610723576107226106c6565b5b92915050565b600061073482610530565b915061073f83610530565b9250828201905080821115610757576107566106c6565b5b9291505056fea2646970667358221220e5d487af1bc31cdff3a1b6d4f63ea1b50c223e6c23fa9b3a403dc60b7842fce664736f6c63430008120033",
  "linkReferences": {},
  "deployedLinkReferences": {}
}